:0400000007EF00F016
:100008001E82BEED00F028EF01F0600ED36EF28E76
:10001800F28C010ECD6E7D0ECA6E000EB16EE20E30
:10002800CF6E900ECE6E0A0EBD6E1CC0BEFF1DC0F8
:10003800BFFF9D809D849D82800EC26E8E0EC16E14
:10004800960EC06EC280000E826E3C0E836E000E4D
:10005800946E3C0E956ECA84030E146E980EE82EAC
:10006800FED7142EFCD71CC0BEFF1DC0BFFF83B433
:1000780004D01586000E196E01D0192A83B604D053
:100088001584000E186E01D0182A83B415A602D064
:10009800159605D00A0E196408D0000E196EB00E18
:1000A8001C241C6EFF0E1D201D6E83B615A402D0E5
:1000B800159405D00A0E186408D0000E186E500E5C
:1000C8001C241C6E000E1D201D6EFA0E1D5CD8A08F
:1000D80004D0FA0E1D6E000E09D0780E1C5CE60ED8
:1000E8001D58D8B004D0E60E1D6E780E1C6E83B86D
:1000F80004D01582000E176E01D0172A83BA04D0D7
:100108001580000E166E01D0162A83B815A202D0EB
:10011800159205D00A0E176408D0000E176E010E4E
:100128001A241A6E000E1B201B6E83BA15A002D06B
:10013800159005D00A0E166408D0000E166EFF0E34
:100148001A241A6EFF0E1B201B6E1B5004E1290E89
:100158001A5CD8A004D0000E1B6E280E09D01B50C4
:1001680003E10A0E1A5CD8B077D7000E1B6E0A0E90
:100178001A6E72D70600FACF02F0FBCF03F0E9CF70
:1001880004F0EACF05F0E1CF06F0E2CF07F0D9CFCF
:1001980008F0DACF09F0F3CF0AF0F4CF0BF0F6CF7E
:1001A8000CF0F7CF0DF0F8CF0EF0F5CF0FF01EC022
:1001B80010F01FC011F020C012F021C013F09EA053
:1001C80006D09E90E20ECF6E900ECE6E83809EA4D7
:1001D80002D09E9483909EA211D09E9283B206D0A4
:1001E8001AC0CBFF000ECC6E838208D01A500008CC
:1001F800016E0104CB6E000ECC6E839213C021F009
:1002080012C020F011C01FF010C01EF00FC0F5FF83
:100218000EC0F8FF0DC0F7FF0CC0F6FF0BC0F4FFCF
:100228000AC0F3FF09C0DAFF08C0D9FF07C0E2FF20
:1002380006C0E1FF05C0EAFF04C0E9FF03C0FBFFF9
:1002480002C0FAFF1E921100840EF66E020EF76EBF
:10025800000EF86E00EE1AF010EE04F00900F5CF6B
:10026800EEFFE550E150FAE1156A196A186A176A53
:10027800166A1E901E92000109EF00F00D0030F280
:020000040020DA
:08000000FFFFFFFFFFFFFFFF00
:020000040030CA
:0E000000000A191EFF0380FF0FC00FE00F4023
:00000001FF
